:020000040800F2
:1000000000000220B9020008BF020008C302000875
:1000100035030008390300088103000800000000D0
:10002000000000000000000000000000C9030008FC
:10003000CD03000800000000D1030008F5130008FC
:10004000E5030008E5030008E5030008E5030008F0
:10005000E5030008E5030008E5030008E5030008E0
:10006000E5030008E5030008E5030008E5030008D0
:10007000E5030008E5030008E5030008E5030008C0
:10008000E5030008E5030008E5030008E5030008B0
:10009000E5030008E5030008E5030008E5030008A0
:1000A000E5030008E5030008E5030008E503000890
:1000B000E5030008E5030008E5030008E503000880
:1000C000E5030008E5030008E5030008E503000870
:1000D000E5030008E5030008E5030008E503000860
:1000E000E5030008E5030008E5030008E503000850
:1000F000E5030008E5030008E5030008E503000840
:10010000E5030008E5030008E5030008E50300082F
:10011000E5030008E5030008E5030008E50300081F
:10012000E5030008E5030008E5030008E50300080F
:10013000E5030008E5030008E5030008E5030008FF
:10014000E5030008E5030008E5030008E5030008EF
:10015000E5030008E5030008E5030008E5030008DF
:10016000E5030008E5030008E5030008E5030008CF
:10017000E5030008E5030008E503000800000000AF
:10018000E5030008E503000800B583B000F0DCFFDC
:10019000384B394A1360394A1360394906E052F83E
:1001A000041B43F8041B9842F9D86146354B994229
:1001B00005D20A684B6801F10C0C8868F3E72E4BF6
:1001C0001A68314B9A4200D0FEE72C4B1A682F4B2D
:1001D0009A42F9D1274B2E4A13602E4A13602E4AB9
:1001E00000E002462D4B9A4209D2104650F8083BD7
:1001F00051689942F5D9002243F8042BF9E7244BC2
:100200001B6813B9234B1B6803B1FEE701F046F9E5
:10021000694601A800F026FF214C224BE41AA410E5
:10022000002504E01F4B53F8253098470135AC42B8
:10023000F8DC1D4C1D4BE41AA410002504E01B4BF8
:1002400053F8253098470135AC42F8DC0099019805
:1002500001F02CF90546164C164BE41AA41004E0E4
:10026000013C144B53F824309847002CF8DC284606
:1002700000F0CAFEBABADECA0000002074000020F6
:10028000E8030008000400087856341232547698C7
:100290007800002018010020000400081004000865
:1002A00010040008100400081004000810040008DE
:1002B000100400081004000808B5FFF765FF00BE31
:1002C000FEE71EF0040F0CBFEFF30880EFF3098088
:1002D0007146414A10472DE9F04182B004460D466F
:1002E000124B5F6BD3F838809E6A1B6B13F0020FC2
:1002F00003D00E4BDB6A002B0BDB0D4800F0C4FE75
:10030000009543463A463146204600F029FF00BE9C
:10031000FEE74BF6AB6100F09DFF0028EDD0034BEC
:100320004FF00042DA6202B0BDE8F08100ED00E07B
:10033000C020000800BEFEE71EF0040F0CBFEFF364
:100340000880EFF309807146244A10472DE9F041F7
:1003500082B004460D46084B5F6BD3F838809E6A26
:10036000064800F091FE009543463A463146204645
:1003700000F0F6FE00BEFEE700ED00E0D020000831
:100380001EF0040F0CBFEFF30880EFF309807146F5
:10039000134A10472DE9F04182B004460D46084B40
:1003A0005F6BD3F838809E6A064800F06DFE0095BA
:1003B00043463A463146204600F0D2FE00BEFEE7F4
:1003C00000ED00E0DC20000800BEFEE700BEFEE716
:1003D00000BEFEE770470000D70200084D0300088A
:0803E0009503000800BEFEE7D2
:1003E800682100080000002078000020682100082B
:1003F8000000001000000010780000201C01002000
:080408000000001000000010CC
:1004100010B50446074B1868074BA3FB0030800952
:1004200000F098F8002221464FF0FF3000F04CF821
:10043000002010BD0C000020D34D621008B50B4BFE
:100440001A6842F400721A601A6842F480621A60F4
:100450001A6842F480721A60032000F017F80F2027
:10046000FFF7D6FF01F058F8002008BD003C02401D
:10047000024A136801331360704700BF7C000020FC
:10048000014B1868704700BF7C00002010B504467F
:10049000C31E042B0FD80A4AD36823F4E0631B045D
:1004A0001B0C240204F4E064234343F0BF6343F4D1
:1004B0000033D36010BDA421024800F0DBFDEAE761
:1004C00000ED00E0C01E000870B505460C4616465B
:1004D0000F2A25D80F2C28D81B4BDB68C3F3022327
:1004E000C3F10702042A28BF0422191D062921D9B5
:1004F000033B4FF0FF3101FA02F224EA02049C4070
:10050000994026EA010644EA0602002D14DB120196
:10051000D2B205F1604505F5614585F8002370BD4F
:10052000BC210A4800F0A6FDD4E7BD21074800F031
:10053000A1FDD1E70023DCE705F00F051201D2B2DF
:10054000034B5A55EBE700BF00ED00E0C01E00086A
:1005500014ED00E00138B0F1807F0BD24FF0E023C2
:100560005861054AF02182F8231000209861072283
:100570001A6170470120704700ED00E010B5044695
:10058000042800D040B9042C0CD04FF0E0221369AD
:1005900023F00403136110BD40F2B311054800F0CD
:1005A00069FDF0E74FF0E022136943F004031361A3
:1005B000F1E700BFC01E00082DE9F04782B00746F2
:1005C0000E46A94B984223D003F5806398421FD072
:1005D00003F5806398421BD003F58063984217D0DF
:1005E00003F58063984213D003F5806398420FD0DF
:1005F00003F5806398420BD003F58063984207D0DF
:1006000003F58063984203D0C521984800F032FD7D
:1006100033887BB17368012B16D9954A934213D066
:100620001AD8A2F5801293420ED008D9914A93426B
:100630000AD01CE0C6218D4800F01CFDEAE7032B20
:1006400007D9113B012B12D8B368022B14D8002410
:10065000DEE0022B0BD3F7E7874A9342F4D002F592
:1006600080329342F0D0A2F580129342ECD0C721A1
:100670007E4800F0FFFCE7E7C8217C4800F0FAFC68
:10068000E5E70F2B40F0DE80E208083257F8220041
:1006900004F0070189000F238B4020EA030033692F
:1006A0008B40034347F822303A684FEA440A032359
:1006B00003FA0AF36FEA030922EA0302736803F0FC
:1006C000030303FA0AF313433B6073685A1E012ABB
:1006D00003D9112B01D0122B13D1F368032B5AD855
:1006E000BA6809EA0202F36803FA0AF31343BB602B
:1006F0007A6822EA05027368C3F30013A340134328
:100700007B60FB6809EA0309B36803FA0AF343EA6A
:100710000903FB60736813F0805F78D000230193B6
:10072000564B5A6C42F480425A645B6C03F480432B
:100730000193019BA208911C514B53F8210004F036
:10074000030189000F238B4020EA0300464B9F42A0
:1007500028D003F580639F4279D003F580639F42E0
:1007600077D003F580639F4275D003F580639F4285
:1007700073D003F580639F4271D003F580639F427D
:100780006FD003F580639F427ED003F580639F4264
:1007900006D0092307E0EC21344800F06BFC9FE70A
:1007A000082300E000238B4003430232344941F820
:1007B0002230344B1A686FEA080322EA0801706895
:1007C00010F4803F01D048EA02012E4A11605268BD
:1007D00003EA0201706810F4003F01D048EA020108
:1007E000284A5160926803EA0201706810F4801F81
:1007F00001D048EA0201234A9160D268134071682F
:1008000011F4001F01D048EA02031E4AD3600134EC
:100810000F2C3BD80125A540336803EA050835EACB
:100820000303F4D17368022B02D0122B7FF43CAF88
:100830003369002B3FF428AF0D2B3FF622AF002B7E
:100840007FF422AFD921094800F014FC1CE70123F2
:10085000A9E70223A7E70323A5E70423A3E70523CA
:10086000A1E706239FE700BF00000240F41E000836
:10087000000021100000121000003110003802406A
:1008800000380140003C014007238CE702B0BDE87E
:10089000F08700BF70B5054614460E4621B1012C05
:1008A00008D86CB1AE6170BD40F2B111064800F0DD
:1008B000E1FBF4E74FF4D971034800F0DBFBF0E70C
:1008C0003604AE61EFE700BFF41E000830B583B018
:1008D000044603680F2B29D8236813F0010F3DD07D
:1008E0006368012B01D9052B25D1A34B9B6803F02D
:1008F0000C03042B29D0A04B9B6803F00C03082B9E
:100900001ED022799C4B9A706368002B50D0FFF761
:10091000B7FD0546984B1B6813F4003F1ED1FFF747
:10092000AFFD401B6428F5D90320E1E1F521934890
:1009300000F0A0FBD0E7FA21904800F09BFBD4E741
:100940008D4B5B6813F4800FDBD08B4B1B6813F46B
:10095000003F03D06368002B00F0C581236813F0CB
:10096000020F5BD0E368012B31D823691F2B34D8E9
:10097000814B9B6813F00C0F3AD07F4B9B6803F0C0
:100980000C03082B2FD0E368002B72D07C4B012284
:100990001A60FFF775FD0546774B1B6813F0020FD1
:1009A00059D1FFF76DFD401B0228F5D903209FE1C7
:1009B000FFF766FD0546704B1B6813F4003FCDD072
:1009C000FFF75EFD401B6428F5D9032090E14FF44A
:1009D00096716A4800F04EFBC7E740F22D11674858
:1009E00000F048FBC4E7644B5B6813F4800FCAD186
:1009F000614B1B6813F0020F03D0E368012B40F03A
:100A000074815D48036823F0F8032169F82292FAA3
:100A1000A2F2B2FA82F291400B430360236813F012
:100A2000080F51D06369012B35D86369002B38D08A
:100A3000534B0122C3F8802EFFF722FD05464E4B93
:100A40005B6F13F0020F3FD1FFF71AFD401B022826
:100A5000F5D903204CE14848036823F0F8032169E5
:100A6000F82292FAA2F2B2FA82F291400B430360AA
:100A7000D4E7434B00221A60FFF702FD05463E4BC8
:100A80001B6813F0020FC9D0FFF7FAFC401B0228C5
:100A9000F5D903202CE140F26D11384800F0EAFA54
:100AA000C3E7374B0022C3F8802EFFF7E9FC054669
:100AB000314B5B6F13F0020F06D0FFF7E1FC401BD8
:100AC0000228F5D9032013E1236813F0040F5BD04B
:100AD000A368012B01D9052B1FD100230193264BBD
:100AE0001A6C42F080521A641B6C03F0805301931D
:100AF000019B244A136843F480731360FFF7C0FC22
:100B00000546204B1B6813F4807F0CD1FFF7B8FC1F
:100B1000401B0228F5D90320EAE040F2971117485C
:100B200000F0A8FAD9E7227A134B83F87020A36863
:100B300083B1FFF7A5FC05460F4B1B6F13F0020FA7
:100B400022D1FFF79DFC401B41F288339842F3D934
:100B50000320CDE0FFF794FC0546074B1B6F13F015
:100B6000020F11D0FFF78CFC401B41F288339842F2
:100B7000F3D90320BCE000BF00380240241F000866
:100B80000000474200700040A369022B3CD8A369D3
:100B9000002B00F0AC80584A926802F00C02082A40
:100BA00000F0A880022B40F08A80E36913B1B3F50E
:100BB000800F2FD1236A3F2B32D8636A323BB3F5C3
:100BC000BF7F33D8A36A022B08D0082B34D84FF448
:100BD000A87222FA03F313F0010F2DD0E36A043B4D
:100BE0000B2B2FD8454B00221A66FFF749FC054610
:100BF000414B1B6813F0007F2AD0FFF741FC401BDC
:100C00000228F5D9032073E04FF4E6713C4800F068
:100C100031FABCE740F2D511394800F02BFAC9E7A8
:100C20004FF4EB71364800F025FAC6E740F2D711D1
:100C3000334800F01FFAC5E74FF4EC71304800F07C
:100C400019FACBE740F2D9112D4800F013FAC9E7A1
:100C5000E369226A1343616A47F6C07292FAA2F20C
:100C6000B2FA82F291400B43A26A5208013A4FF461
:100C7000403191FAA1F1B1FA81F18A401343E16A5E
:100C80004FF0706292FAA2F2B2FA82F201FA02F224
:100C90001343194A5360194B01221A66FFF7F0FB00
:100CA0000446154B1B6813F0007F06D1FFF7E8FBE5
:100CB000001B0228F5D903201AE0002018E00F4B92
:100CC00000221A66FFF7DCFB04460B4B1B6813F08F
:100CD000007F06D0FFF7D4FB001B0228F5D90320C4
:100CE00006E0002004E0012002E0012000E00020F6
:100CF00003B030BD0120FBE700380240000047424E
:100D0000241F0008224B9B6803F00C03042B3AD0ED
:100D1000082B3AD11E4A536803F03F03526812F47D
:100D2000800F1FD01B48B0FBF3F0194B5A6847F6F1
:100D3000C0731A4093FAA3F3B3FA83F322FA03F3CE
:100D400003FB00F0124B5B6803F440334FF4403276
:100D500092FAA2F2B2FA82F2D34001335B00B0FB06
:100D6000F3F070470C48B0FBF3F0094B5A6847F6B4
:100D7000C0731A4093FAA3F3B3FA83F322FA03F38E
:100D800003FB00F0DEE7034870470348704700BFED
:100D90000038024000127A000024F40070B50446C6
:100DA0000D460368013B0E2B1FD8072D23D88E4B11
:100DB0001B6803F00F03AB4208D2EBB28A4A1370F0
:100DC000136803F00F03AB4240F00781236813F070
:100DD000020F21D0A368C3B1C02B16D04DD8A02BD1
:100DE00013D00ED9B02B10D04DE040F237217F4800
:100DF00000F040F9D9E74FF40E717C4800F03AF961
:100E0000D5E7802B01D0902B3DD1794A936823F010
:100E1000F003A1680B439360236813F0010F79D0AE
:100E20006368032B35D86368012B38D09A1E012ADA
:100E30003CD96F4A126812F0020F00F0D0806C4962
:100E40008A6822F0030213438B60FFF719FB064602
:100E50006368012B31D0022B3ED0032B4BD0644B67
:100E60009B6813F00C0F55D0FFF70AFB801B41F273
:100E700088339842F3D90320A2E0E02BC5D0F02BB1
:100E8000C3D0D02BC1D040F24F21584800F0F2F827
:100E9000BBE740F25621554800F0ECF8C3E7544A4E
:100EA000126812F4003FCAD1012089E0504A12684A
:100EB00012F0007FC3D1012082E04D4B9B6803F00C
:100EC0000C03042B26D0FFF7DBFA831B41F2883298
:100ED0009342F2D9032073E0454B9B6803F00C0367
:100EE000082B17D0FFF7CCFA801B41F288339842C9
:100EF000F2D9032064E03E4B9B6803F00C030C2BFB
:100F000008D0FFF7BDFA801B41F288339842F2D92E
:100F1000032055E0344B1B6803F00F03AB4207D9A5
:100F2000EAB2314B1A701B6803F00F03AB4258D181
:100F3000236813F0040F14D0E3685BB1B3F5805F4E
:100F400008D0B3F5A05F05D0B3F5C05F02D0B3F50C
:100F5000E05F36D1264A936823F4E053E1680B43FF
:100F60009360236813F0080F15D023695BB1B3F5C4
:100F7000805F08D0B3F5A05F05D0B3F5C05F02D0A5
:100F8000B3F5E05F23D11A4A936823F460432169E3
:100F900043EAC1039360FFF7B5FE154B9B6803F06E
:100FA000F003F02292FAA2F2B2FA82F2D340114A8E
:100FB000D35CD840104B18600F20FFF729FA0020AF
:100FC00070BD4FF42D71094800F054F8C2E740F2AB
:100FD000BB21064800F04EF8D5E70120F0E70120DC
:100FE000EEE70120ECE700BF003C0240241F0008B0
:100FF00000380240541F00080C000020014B186804
:10100000704700BF0C000020FEE7000008B5034851
:1010100000F054F80120FFF7F7FF00BF641F00083D
:1010200008B503460C4A12685AB10B4A10680333DC
:1010300023F003030344094A934206D8064A136087
:1010400008BD054A06491160EFE700F067FA0C2376
:1010500003604FF0FF30F3E78000002000FC012028
:101060001C01002001230360014B0B60704700BF8F
:101070000400002008B50A460146024800F004F8C2
:10108000FFF7C4FF781F00080FB400B583B004ABAE
:1010900053F8042B01938021074800F079FA0028C7
:1010A00004DC03B05DF804EB04B07047014602486D
:1010B00000F045F8F5E700BF8C00002010B50446AD
:1010C00000F032FA0146204600F039F801210248CA
:1010D00000F035F810BD00BF3C2000082DE9F043BA
:1010E00085B004460F4643563BBB0425284621469F
:1010F000ABBE0546384605B0BDE8F08314F901CB18
:1011000003F110026A4402F810CC0133AB42F5D36C
:1011100010336B44002203F8102C4FF00408E9460A
:1011200040464946ABBE8046761B002EE2D035468F
:10113000102E28BF10250023E8E70E46F5E708B576
:10114000FFF7CCFF08BD000008B500F093F8024A95
:10115000024B9A6008BD00BF0000000800ED00E0EF
:10116000F8B504460D4617461E462748FFF78CFF84
:1011700021682648FFF788FF61682548FFF784FF4C
:10118000A1682448FFF780FFE1682348FFF77CFF50
:1011900021692248FFF778FF61692148FFF774FF52
:1011A000A1692048FFF770FFE1691F48FFF76CFF56
:1011B0001E48FFF769FF29461D48FFF765FF1D4CD4
:1011C000E16A1D48FFF760FF216B1C48FFF75CFFD9
:1011D000E16B1B48FFF758FF15F0800F0AD115F49B
:1011E000004F0CD11748FFF74FFF06991648FFF73D
:1011F0004BFFF8BD39461548FFF746FFEFE731468C
:101200001348FFF741FFEDE7A41F0008B41F0008D3
:10121000C41F0008D41F0008E41F0008F41F0008C2
:1012200004200008142000082420000834200008AE
:101230004020000800ED00E0502000086020000879
:1012400070200008A0200008A820000880200008C6
:101250009020000883691A888A4201D000207047D4
:101260000268033A012A01D90020704702338361E2
:10127000012070470C4B1A6842F001021A600021ED
:1012800099601A6822F0847222F480321A60074A48
:101290005A601A6822F480221A60D960044B4FF019
:1012A00000629A60704700BF00380240103000248E
:1012B00000ED00E0224B9B6803F00C03042B14D0DC
:1012C000082B16D01BB11F4B1F4A1A6002E01D4BA2
:1012D0001D4A1A601A4B9B68C3F303131B4AD15C67
:1012E000184A1368CB4013607047164B184A1A60AF
:1012F000F0E7134B59685A6802F03F0211F4800F6F
:1013000013D0134BB3FBF2F30D4A5268C2F38812A9
:1013100002FB03F30A4A5268C2F30142013252004F
:10132000B3FBF2F3074A1360D4E7074BB3FBF2F3C6
:10133000034A5268C2F3881202FB03F3EAE700BFD4
:10134000003802400C0000200024F400EC200008CB
:1013500000127A0030B587B00C4A136B43F00803D3
:1013600013634FF4805501950123029302220492E6
:101370000393074C01A92046FFF71EF900222946D6
:101380002046FFF787FA07B030BD00BF00380240A3
:10139000000C02400A4B1B680A4AA2FB03239B096C
:1013A000013BB3F1807F0AD24FF0E0225361064B3C
:1013B000F02183F823100023936107231361704702
:1013C0000C000020D34D621000ED00E0034B1860CC
:1013D000024B1B68002BFBD1704700BF0C010020A3
:1013E000034B1B681BB1024A1368013B1360704733
:1013F0000C01002008B5FFF73BF8FFF7F1FF08BD2F
:1014000030B595B000240194214B1A6C42F0805203
:101410001A641B6C03F080530193019B02941D4BD3
:101420001A6842F480421A601B6803F480430293F6
:10143000029B0123089309934FF480030F93082321
:1014400010934FF4A8731193022512950723139359
:101450000E9508A8FFF73AFA0F2303930495059415
:101460004FF4A05306934FF480530793052103A82C
:10147000FFF794FCFFF7C2FD074BA3FB0030800988
:10148000FFF768F80420FFF779F815B030BD00BF0A
:101490000038024000700040D34D621008B5FEF7DE
:1014A000CDFFFFF7ADFFFFF705FF08BD10B51548ED
:1014B000FFF704FE144B19681448FFF7E5FDFFF72A
:1014C00069FFFFF747FF002411E04FF47A70FFF740
:1014D0007DFF00224FF480510D48FFF7DBF9FA2021
:1014E000FFF774FF013421460A48FFF7CDFD0122C2
:1014F0004FF480510648FFF7CDF9002CE5D040F2BB
:10150000EE20E4E7FC2000080C0000201021000879
:10151000000C02402821000870470000014B1868A9
:10152000704700BF10000020034613F8012B002A6B
:10153000FBD1181A0138704730B51446002C9BB007
:1015400005461A4605DA8B2303604FF0FF301BB0C7
:1015500030BD4FF40273ADF80C3014BF04F1FF330B
:101560002346029305934FF6FF7300910491ADF863
:101570000E3069461E9B00F073F8431CBCBF8B23E2
:101580002B60002CE3D0009B00221A70DFE70000E4
:1015900007B5009313460A46014603480068FFF763
:1015A000CBFF03B05DF804FB100000202DE9F047ED
:1015B0008E681F46BE420B6882460C4690462CD869
:1015C0008A8912F4906F26D06569096905EB450593
:1015D000A3EB010905EBD5757B1C4B446D109D42B7
:1015E00038BF1D46530527D5294600F0ABFB0646FC
:1015F00060B321694A4600F013FBA38923F490638A
:1016000043F08003A381266165614E44A5EB090583
:101610002660A5603E46BE4200D93E46206832465E
:10162000414600F00BFBA3689B1BA3602368334477
:1016300023600020BDE8F0872A4600F0F7FB06464D
:101640000028E0D12169504600F012FB0C23CAF8B3
:101650000030A38943F04003A3814FF0FF30E9E756
:101660002DE9F04F98468B891B069DB007460D4625
:1016700014460ED50B6963B9402100F063FB286066
:10168000286120B90C233B604FF0FF30D0E04023AD
:101690006B610023099320238DF82930CDF80C804D
:1016A0003023DFF8A4818DF82A304FF0010923465A
:1016B0009A4613F8012B0AB1252AF9D1BAEB040B8B
:1016C0000BD05B46224629463846FFF76FFF0130B4
:1016D00000F0A980099A5A4409929AF80030002B28
:1016E00000F0A18000234FF0FF32CDE905230AF17D
:1016F000010A049307938DF853301A935446052238
:1017000014F8011B504800F03BFA049AD8B9D006EF
:1017100044BF20238DF85330110744BF2B238DF88D
:1017200053309AF800302A2B15D0079A54460020DF
:101730004FF00A0C214611F8013B303B092B4DD9E3
:10174000B0B1079214E0A0EB080309FA03F31343C6
:101750000493A246D2E7039B191D1B680391002B3B
:10176000BBBF5B4242F0020207930793B8BF0492EB
:1017700023782E2B0CD163782A2B34D1039B1A1D8E
:101780001B680392002BB8BF4FF0FF330234059360
:10179000DFF8B8A021780322504600F0F1F938B103
:1017A000049BA0EB0A0040228240134301340493BF
:1017B00014F8011B26488DF82810062200F0E0F9E5
:1017C000002838D0234B1BBB039B073323F00703B0
:1017D00008330393099B3344099368E70CFB0232F7
:1017E0000C460120A6E700230134059319464FF06B
:1017F0000A0C204610F8012B303A092A03D9002B95
:10180000C6D00591C4E70CFB012104460123F0E793
:1018100003AB00932A46104B04A93846AFF300806F
:10182000421C0646D6D1AB895B063FF52DAF099821
:101830001DB0BDE8F08F03AB00932A46064B04A908
:10184000384600F079F8EBE7332100083921000829
:101850003D21000800000000AD1500082DE9F0470B
:10186000164699468A680B69DDF820809342B8BF16
:101870001346336091F8432007460C460AB1013302
:1018800033602368990642BF3368023333602568AA
:1018900015F0060506D104F1190AE36832689B1AAF
:1018A000AB4226DC94F84320131E226818BF0123A4
:1018B00092062BD404F1430249463846C047013012
:1018C0001ED02368226903F00603042B02BFE568DB
:1018D0003368ED1AA3680CBF25EAE575002593422D
:1018E000C4BF9B1AED1800261A34B5421AD1002045
:1018F00008E00123524649463846C047013003D12B
:101900004FF0FF30BDE8F0870135C6E7E1185A1CFB
:10191000302081F84300224494F8451082F84310A7
:101920000233C7E70123224649463846C047013003
:10193000E6D00136D9E700002DE9FF470F7E0C9D68
:10194000782F914680460C469A4601F1430207D80B
:10195000622F0AD8002F00F0D480582F00F0C080EA
:1019600004F1420584F842703AE0A7F16303152BB5
:10197000F6D801A151F823F0D1190008E5190008A3
:10198000611900086119000861190008611900084F
:10199000E5190008611900086119000861190008BB
:1019A00061190008E91A0008111A0008A31A0008B2
:1019B00061190008611900080B1B00086119000873
:1019C000111A00086119000861190008AB1A000813
:1019D0002B681A1D1B682A6004F1420584F8423006
:1019E00001239FE020682B68070603F104012960AA
:1019F00001D51E6803E04606FBD5B3F90060002E52
:101A000003DA2D23764284F843305A480A2312E041
:101A10002B682068191D2960050601D51E6802E0A3
:101A20004106FBD51E8853486F2F0CBF08230A239D
:101A3000002184F843106568A560002DA2BF2168CD
:101A400021F0040121600EB9002D4BD01546B6FBE4
:101A5000F3F103FB1167C75D05F8017D3746BB4213
:101A60000E46F4D9082B0BD12368DE0708D523696D
:101A700061689942DEBF302305F8013C05F1FF356E
:101A8000521B2261CDF800A04B4603AA21464046D6
:101A9000FFF7E4FE01304AD14FF0FF3004B0BDE85B
:101AA000F087236843F0200323603348782784F8C5
:101AB0004570236829681F0651F8046B02D45F063D
:101AC00048BFB6B2DF0748BF43F02003296048BFD4
:101AD00023601EB9236823F0200323601023A7E7A7
:101AE0002448E4E71546BDE72B6826686169181DA0
:101AF000286035061B6801D5196002E07006FBD529
:101B00001980002323611546BCE72B681A1D2A6043
:101B10001D6862680021284600F032F808B1401BB9
:101B2000606063682361002384F84330AAE7236977
:101B30002A4649464046D0470130ADD023689B072E
:101B400013D4E068039B9842B8BF1846A6E7012368
:101B5000324649464046D04701309DD00135E368C2
:101B600003995B1AAB42F2DCEBE7002504F119069E
:101B7000F5E700BF442100085521000800000000DF
:101B800001F0FF01102A2BDB10F0070F08D010F82E
:101B9000013B013A8B422DD010F0070F42B3F6D132
:101BA000F0B441EA012141EA014122F007047FF04B
:101BB00000070023F0E80256083C85EA010586EAA2
:101BC000010685FA47F5A3FA87F586FA47F6A5FADE
:101BD00087F68EB9EED1F0BC01F0FF0102F00702EA
:101BE00032B110F8013B013A83EA010313B1F8D195
:101BF0000020704701387047002D06BF3546033876
:101C0000073815F0010F07D1013015F4807F02BFAE
:101C1000013015F4C03F0130F0BC0138704700BFFF
:101C20000A44914200F1FF3300D1704710B511F81A
:101C3000014B03F8014F9142F9D110BD884210B514
:101C400001EB020402D98442234607D8431EA14275
:101C500008D011F8012B03F8012FF8E702440146E0
:101C60008A4200D110BD13F8014D02F8014DF7E78B
:101C700038B50546002941D051F8043C0C1F002B13
:101C8000B8BFE41800F012F91D4A136833B9636055
:101C900014602846BDE8384000F009B9A34208D9CD
:101CA000206821188B4201BF19685B680918216000
:101CB000EDE71A465B680BB1A342FAD911685018D8
:101CC000A0420BD120680144501883421160E0D13A
:101CD00018685B68536008441060DAE702D90C2387
:101CE0002B60D6E7206821188B4204BF19685B6817
:101CF000636004BF091821605460CAE738BD00BFA3
:101D00001001002070B50E4E0C463168054611B921
:101D100000F0BCF830602146284600F0B7F8431CBC
:101D20000AD0C41C24F00304A04207D0211A28467C
:101D300000F0ACF8013001D14FF0FF34204670BD07
:101D4000140100202DE9F041CD1C25F003050835D4
:101D50000C2D38BF0C25002D074601DBA94205D903
:101D60000C233B6000263046BDE8F0812E4E00F08B
:101D70009DF833681C4634BB29463846FFF7C2FF3E
:101D8000431C04464DD134682646002E40D12368BA
:101D90003146384604EB030800F078F880453AD124
:101DA00023680335ED1A25F0030508350C2D38BFDF
:101DB0000C2529463846FFF7A5FF01302BD02368B4
:101DC0002B4423600EE02268521B1ED40B2A16D926
:101DD0006119A342256018BF5960636808BF31606C
:101DE00062514B60384604F10B0600F060F826F0B3
:101DF0000706231DF21AB6D09B1BA350B3E76268F7
:101E0000A3420CBF32605A60ECE723466468B2E735
:101E100034467668B9E70C233B60384600F047F853
:101E2000A1E72560DEE700BF100100202DE9F041A9
:101E3000804614460E4621B9BDE8F0411146FFF731
:101E400081BF2AB9FFF714FF25462846BDE8F08177
:101E500000F02EF88442074602D8B4EB500F12D897
:101E600021464046FFF76EFF05460028EDD0BC42F4
:101E70002246314628BF3A46FFF7D2FE3146404659
:101E8000FFF7F6FEE1E73546DFE7000038B5064D1F
:101E90000023044608462B60FFF7C2F8431C02D11A
:101EA0002B6803B1236038BD840000207047704761
:101EB00051F8043C181F002BBCBF0B58C0187047CA
:101EC0002E2E2F73797374656D2F7372632F737455
:101ED0006D333266342D68616C2F73746D333266E6
:101EE0003478785F68616C5F636F727465782E63B5
:101EF000000000002E2E2F73797374656D2F73729E
:101F0000632F73746D333266342D68616C2F737474
:101F10006D3332663478785F68616C5F6770696FC3
:101F20002E6300002E2E2F73797374656D2F7372DC
:101F3000632F73746D333266342D68616C2F737444
:101F40006D3332663478785F68616C5F7263632EDC
:101F5000630000000000000001020304010203040A
:101F60000607080961626F727428292C2065786958
:101F700074696E672E2E2E006173736572745F70C4
:101F80006172616D2829206661696C65643A20661A
:101F9000696C6520222573222C206C696E652025D2
:101FA000640A0000537461636B206672616D653A68
:101FB0000A000000205230203D2020253038580AE9
:101FC00000000000205231203D2020253038580AE2
:101FD00000000000205232203D2020253038580AD1
:101FE00000000000205233203D2020253038580AC0
:101FF0000000000020523132203D20253038580AA0
:1020000000000000204C52203D2020253038580A86
:1020100000000000205043203D2020253038580A81
:102020000000000020505352203D20253038580A2F
:10203000000000004653522F4641523A0A00000069
:102040002043465352203D2020253038580A0000B6
:102050002048465352203D2020253038580A0000A1
:102060002044465352203D2020253038580A000095
:102070002041465352203D2020253038580A000088
:10208000204D4D464152203D20253038580A000051
:102090002042464152203D2020253038580A000079
:1020A0004D6973630A000000204C522F4558435F6E
:1020B00052455455524E3D20253038580A000000F4
:1020C0005B486172644661756C745D0A00000000D3
:1020D0005B4275734661756C745D0A005B55736194
:1020E00067654661756C745D0A00000000000000C1
:1020F00000000000010203040607080948656C6C33
:102100006F2041726D20576F726C642100000000D7
:1021100053797374656D20636C6F636B3A2025751A
:1021200020487A0A000000005365636F6E64202522
:10213000750A00232D302B2000686C4C0065666703
:10214000454647003031323334353637383941422D
:1021500043444546003031323334353637383961FF
:0621600062636465660085
:102168007856341288000020000000000024F40093
:102178001400002000000000000000000000000023
:102188000000000000000000000000000000000047
:102198000000000000000000000000000000000037
:1021A8000000000000000000000000000000000027
:1021B8000000000000000000000000000000000017
:1021C8000000000000000000000000000000000007
:0821D80000000000325476986B
:040000050800018965
:00000001FF
